{"abi":[{"type":"constructor","inputs":[],"stateMutability":"nonpayable"},{"type":"function","name":"json","inputs":[],"outputs":[{"name":"","type":"string","internalType":"string"}],"stateMutability":"view"},{"type":"function","name":"owner","inputs":[],"outputs":[{"name":"","type":"address","internalType":"address"}],"stateMutability":"view"},{"type":"function","name":"renounceOwnership","inputs":[],"outputs":[],"stateMutability":"nonpayable"},{"type":"function","name":"totalKeys","inputs":[],"outputs":[{"name":"","type":"uint256","internalType":"uint256"}],"stateMutability":"view"},{"type":"function","name":"transferOwnership","inputs":[{"name":"newOwner","type":"address","internalType":"address"}],"outputs":[],"stateMutability":"nonpayable"},{"type":"function","name":"valueAt","inputs":[{"name":"key","type":"string","internalType":"string"},{"name":"versionIndex","type":"uint256","internalType":"uint256"}],"outputs":[{"name":"","type":"string","internalType":"string"}],"stateMutability":"view"},{"type":"function","name":"version","inputs":[{"name":"key","type":"string","internalType":"string"}],"outputs":[{"name":"","type":"string","internalType":"string"}],"stateMutability":"view"},{"type":"function","name":"write","inputs":[{"name":"keys","type":"string[]","internalType":"string[]"},{"name":"values","type":"string[]","internalType":"string[]"},{"name":"replace","type":"bool","internalType":"bool"}],"outputs":[],"stateMutability":"nonpayable"},{"type":"event","name":"OwnershipTransferred","inputs":[{"name":"previousOwner","type":"address","indexed":true,"internalType":"address"},{"name":"newOwner","type":"address","indexed":true,"internalType":"address"}],"anonymous":false},{"type":"error","name":"OwnableInvalidOwner","inputs":[{"name":"owner","type":"address","internalType":"address"}]},{"type":"error","name":"OwnableUnauthorizedAccount","inputs":[{"name":"account","type":"address","internalType":"address"}]}],"bytecode":{"object":"0x608060405234801561000f575f5ffd5b50335f73ffffffffffffffffffffffffffffffffffffffff168173ffffffffffffffffffffffffffffffffffffffff1603610081575f6040517f1e4fbdf70000000000000000000000000000000000000000000000000000000081526004016100789190610196565b60405180910390fd5b6100908161009660201b60201c565b506101af565b5f5f5f9054906101000a900473ffffffffffffffffffffffffffffffffffffffff169050815f5f6101000a81548173ffffffffffffffffffffffffffffffffffffffff021916908373ffffffffffffffffffffffffffffffffffffffff1602179055508173ffffffffffffffffffffffffffffffffffffffff168173ffffffffffffffffffffffffffffffffffffffff167f8be0079c531659141344cd1fd0a4f28419497f9722a3daafe3b4186f6b6457e060405160405180910390a35050565b5f73ffffffffffffffffffffffffffffffffffffffff82169050919050565b5f61018082610157565b9050919050565b61019081610176565b82525050565b5f6020820190506101a95f830184610187565b92915050565b6121e5806101bc5f395ff3fe608060405234801561000f575f5ffd5b5060043610610086575f3560e01c8063715018a611610059578063715018a6146101125780638da5cb5b1461011c578063ae06268f1461013a578063f2fde38b1461016a57610086565b806308fb34641461008a57806317e5344e146100ba5780633b06ddd8146100d6578063488bdabc146100f4575b5f5ffd5b6100a4600480360381019061009f91906114fe565b610186565b6040516100b191906115b9565b60405180910390f35b6100d460048036038101906100cf9190611663565b610382565b005b6100de610647565b6040516100eb91906115b9565b60405180910390f35b6100fc610906565b604051610109919061170c565b60405180910390f35b61011a610912565b005b610124610925565b6040516101319190611764565b60405180910390f35b610154600480360381019061014f91906117a7565b61094c565b60405161016191906115b9565b60405180910390f35b610184600480360381019061017f919061182e565b610acf565b005b60605f6001848460405161019b929190611895565b908152602001604051809103902090505f8180549050036101f4576040518060400160405280600281526020017f5b5d00000000000000000000000000000000000000000000000000000000000081525091505061037c565b5f6040518060400160405280600181526020017f5b0000000000000000000000000000000000000000000000000000000000000081525090505f5f90505b828054905081101561035357816102e9848381548110610255576102546118ad565b5b905f5260205f2001805461026890611907565b80601f016020809104026020016040519081016040528092919081815260200182805461029490611907565b80156102df5780601f106102b6576101008083540402835291602001916102df565b820191905f5260205f20905b8154815290600101906020018083116102c257829003601f168201915b5050505050610b53565b6040516020016102fa9291906119ab565b60405160208183030381529060405291506001838054905061031c91906119fb565b81101561034657816040516020016103349190611a78565b60405160208183030381529060405291505b8080600101915050610232565b50806040516020016103659190611ae3565b604051602081830303815290604052905080925050505b92915050565b61038a610d08565b8282905085859050146103d2576040517f08c379a00000000000000000000000000000000000000000000000000000000081526004016103c990611b4e565b60405180910390fd5b5f5f90505b8585905081101561063f575f8686838181106103f6576103f56118ad565b5b90506020028101906104089190611b78565b8080601f0160208091040260200160405190810160405280939291908181526020018383808284375f81840152601f19601f8201169050808301925050505050505090505f8585848181106104605761045f6118ad565b5b90506020028101906104729190611b78565b8080601f0160208091040260200160405190810160405280939291908181526020018383808284375f81840152601f19601f8201169050808301925050505050505090506002826040516104c69190611bda565b90815260200160405180910390205f9054906101000a900460ff16156105795783610526576040517f08c379a000000000000000000000000000000000000000000000000000000000815260040161051d90611c3a565b60405180910390fd5b6001826040516105369190611bda565b908152602001604051809103902081908060018154018082558091505060019003905f5260205f20015f9091909190915090816105739190611e25565b50610630565b6001826040516105899190611bda565b908152602001604051809103902081908060018154018082558091505060019003905f5260205f20015f9091909190915090816105c69190611e25565b5060016002836040516105d99190611bda565b90815260200160405180910390205f6101000a81548160ff021916908315150217905550600382908060018154018082558091505060019003905f5260205f20015f90919091909150908161062e9190611e25565b505b505080806001019150506103d7565b505050505050565b60605f60038054905003610692576040518060400160405280600281526020017f7b7d0000000000000000000000000000000000000000000000000000000000008152509050610903565b5f6040518060400160405280600181526020017f7b0000000000000000000000000000000000000000000000000000000000000081525090505f5f90505b6003805490508110156108db575f600382815481106106f2576106f16118ad565b5b905f5260205f2001805461070590611907565b80601f016020809104026020016040519081016040528092919081815260200182805461073190611907565b801561077c5780601f106107535761010080835404028352916020019161077c565b820191905f5260205f20905b81548152906001019060200180831161075f57829003601f168201915b505050505090505f6001826040516107949190611bda565b908152602001604051809103902090505f81600183805490506107b791906119fb565b815481106107c8576107c76118ad565b5b905f5260205f200180546107db90611907565b80601f016020809104026020016040519081016040528092919081815260200182805461080790611907565b80156108525780601f1061082957610100808354040283529160200191610852565b820191905f5260205f20905b81548152906001019060200180831161083557829003601f168201915b505050505090508461086384610d8f565b61086c83610b53565b60405160200161087e93929190611f88565b604051602081830303815290604052945060016003805490506108a191906119fb565b8410156108cb57846040516020016108b99190611a78565b60405160208183030381529060405294505b50505080806001019150506106d0565b50806040516020016108ed9190612018565b6040516020818303038152906040529050809150505b90565b5f600380549050905090565b61091a610d08565b6109235f6110d8565b565b5f5f5f9054906101000a900473ffffffffffffffffffffffffffffffffffffffff16905090565b606060028484604051610960929190611895565b90815260200160405180910390205f9054906101000a900460ff166109ba576040517f08c379a00000000000000000000000000000000000000000000000000000000081526004016109b190612083565b60405180910390fd5b5f600185856040516109cd929190611895565b9081526020016040518091039020905080805490508310610a23576040517f08c379a0000000000000000000000000000000000000000000000000000000008152600401610a1a906120eb565b60405180910390fd5b808381548110610a3657610a356118ad565b5b905f5260205f20018054610a4990611907565b80601f0160208091040260200160405190810160405280929190818152602001828054610a7590611907565b8015610ac05780601f10610a9757610100808354040283529160200191610ac0565b820191905f5260205f20905b815481529060010190602001808311610aa357829003601f168201915b50505050509150509392505050565b610ad7610d08565b5f73ffffffffffffffffffffffffffffffffffffffff168173ffffffffffffffffffffffffffffffffffffffff1603610b47575f6040517f1e4fbdf7000000000000000000000000000000000000000000000000000000008152600401610b3e9190611764565b60405180910390fd5b610b50816110d8565b50565b60605f8290505f8151118015610c9957507f7b00000000000000000000000000000000000000000000000000000000000000815f81518110610b9857610b976118ad565b5b602001015160f81c60f81b7effffffffffffffffffffffffffffffffffffffffffffffffffffffffffffff19161480610c2f57507f5b00000000000000000000000000000000000000000000000000000000000000815f81518110610c0057610bff6118ad565b5b602001015160f81c60f81b7effffffffffffffffffffffffffffffffffffffffffffffffffffffffffffff1916145b80610c9857507f2200000000000000000000000000000000000000000000000000000000000000815f81518110610c6957610c686118ad565b5b602001015160f81c60f81b7effffffffffffffffffffffffffffffffffffffffffffffffffffffffffffff1916145b5b80610ca95750610ca883611199565b5b80610cb95750610cb88361139c565b5b80610cc95750610cc88361143d565b5b15610cd75782915050610d03565b610ce083610d8f565b604051602001610cf09190612109565b6040516020818303038152906040529150505b919050565b610d1061148e565b73ffffffffffffffffffffffffffffffffffffffff16610d2e610925565b73ffffffffffffffffffffffffffffffffffffffff1614610d8d57610d5161148e565b6040517f118cdaa7000000000000000000000000000000000000000000000000000000008152600401610d849190611764565b60405180910390fd5b565b60605f8290505f5f90505f5f90505b8251811015610e93577f2200000000000000000000000000000000000000000000000000000000000000838281518110610ddb57610dda6118ad565b5b602001015160f81c60f81b7effffffffffffffffffffffffffffffffffffffffffffffffffffffffffffff19161480610e7257507f5c00000000000000000000000000000000000000000000000000000000000000838281518110610e4357610e426118ad565b5b602001015160f81c60f81b7effffffffffffffffffffffffffffffffffffffffffffffffffffffffffffff1916145b15610e86578180610e8290612135565b9250505b8080600101915050610d9e565b505f8103610ea55783925050506110d3565b5f818351610eb3919061217c565b67ffffffffffffffff811115610ecc57610ecb611c58565b5b6040519080825280601f01601f191660200182016040528015610efe5781602001600182028036833780820191505090505b5090505f5f90505f5f90505b84518110156110ca577f2200000000000000000000000000000000000000000000000000000000000000858281518110610f4757610f466118ad565b5b602001015160f81c60f81b7effffffffffffffffffffffffffffffffffffffffffffffffffffffffffffff19161480610fde57507f5c00000000000000000000000000000000000000000000000000000000000000858281518110610faf57610fae6118ad565b5b602001015160f81c60f81b7effffffffffffffffffffffffffffffffffffffffffffffffffffffffffffff1916145b15611052577f5c0000000000000000000000000000000000000000000000000000000000000083838061101090612135565b945081518110611023576110226118ad565b5b60200101907effffffffffffffffffffffffffffffffffffffffffffffffffffffffffffff191690815f1a9053505b848181518110611065576110646118ad565b5b602001015160f81c60f81b83838061107c90612135565b94508151811061108f5761108e6118ad565b5b60200101907effffffffffffffffffffffffffffffffffffffffffffffffffffffffffffff191690815f1a9053508080600101915050610f0a565b50819450505050505b919050565b5f5f5f9054906101000a900473ffffffffffffffffffffffffffffffffffffffff169050815f5f6101000a81548173ffffffffffffffffffffffffffffffffffffffff021916908373ffffffffffffffffffffffffffffffffffffffff1602179055508173ffffffffffffffffffffffffffffffffffffffff168173ffffffffffffffffffffffffffffffffffffffff167f8be0079c531659141344cd1fd0a4f28419497f9722a3daafe3b4186f6b6457e060405160405180910390a35050565b5f5f8290505f8151036111af575f915050611397565b5f5f90505f5f90505b825181101561138f575f603060f81b8483815181106111da576111d96118ad565b5b602001015160f81c60f81b7effffffffffffffffffffffffffffffffffffffffffffffffffffffffffffff1916101580156112585750603960f81b848381518110611228576112276118ad565b5b602001015160f81c60f81b7effffffffffffffffffffffffffffffffffffffffffffffffffffffffffffff191611155b90505f5f831480156112c857507f2d00000000000000000000000000000000000000000000000000000000000000858481518110611299576112986118ad565b5b602001015160f81c60f81b7effffffffffffffffffffffffffffffffffffffffffffffffffffffffffffff1916145b90505f7f2e000000000000000000000000000000000000000000000000000000000000008685815181106112ff576112fe6118ad565b5b602001015160f81c60f81b7effffffffffffffffffffffffffffffffffffffffffffffffffffffffffffff1916149050801561135f57848061134090612135565b955050600185111561135a575f9650505050505050611397565b61137f565b8215801561136b575081155b1561137e575f9650505050505050611397565b5b50505080806001019150506111b8565b506001925050505b919050565b5f7f6273151f959616268004b58dbb21e5c851b7b8d04498b4aabee12291d22fc034826040516020016113cf9190611bda565b60405160208183030381529060405280519060200120148061143657507fba9154e0baa69c78e0ca563b867df81bae9d177c4ea1452c35c84386a70f0f7a8260405160200161141e9190611bda565b60405160208183030381529060405280519060200120145b9050919050565b5f7fefbde2c3aee204a69b7696d4b10ff31137fe78e3946306284f806e2dfc68b805826040516020016114709190611bda565b60405160208183030381529060405280519060200120149050919050565b5f33905090565b5f5ffd5b5f5ffd5b5f5ffd5b5f5ffd5b5f5ffd5b5f5f83601f8401126114be576114bd61149d565b5b8235905067ffffffffffffffff8111156114db576114da6114a1565b5b6020830191508360018202830111156114f7576114f66114a5565b5b9250929050565b5f5f6020838503121561151457611513611495565b5b5f83013567ffffffffffffffff81111561153157611530611499565b5b61153d858286016114a9565b92509250509250929050565b5f81519050919050565b5f82825260208201905092915050565b8281835e5f83830152505050565b5f601f19601f8301169050919050565b5f61158b82611549565b6115958185611553565b93506115a5818560208601611563565b6115ae81611571565b840191505092915050565b5f6020820190508181035f8301526115d18184611581565b905092915050565b5f5f83601f8401126115ee576115ed61149d565b5b8235905067ffffffffffffffff81111561160b5761160a6114a1565b5b602083019150836020820283011115611627576116266114a5565b5b9250929050565b5f8115159050919050565b6116428161162e565b811461164c575f5ffd5b50565b5f8135905061165d81611639565b92915050565b5f5f5f5f5f6060868803121561167c5761167b611495565b5b5f86013567ffffffffffffffff81111561169957611698611499565b5b6116a5888289016115d9565b9550955050602086013567ffffffffffffffff8111156116c8576116c7611499565b5b6116d4888289016115d9565b935093505060406116e78882890161164f565b9150509295509295909350565b5f819050919050565b611706816116f4565b82525050565b5f60208201905061171f5f8301846116fd565b92915050565b5f73ffffffffffffffffffffffffffffffffffffffff82169050919050565b5f61174e82611725565b9050919050565b61175e81611744565b82525050565b5f6020820190506117775f830184611755565b92915050565b611786816116f4565b8114611790575f5ffd5b50565b5f813590506117a18161177d565b92915050565b5f5f5f604084860312156117be576117bd611495565b5b5f84013567ffffffffffffffff8111156117db576117da611499565b5b6117e7868287016114a9565b935093505060206117fa86828701611793565b9150509250925092565b61180d81611744565b8114611817575f5ffd5b50565b5f8135905061182881611804565b92915050565b5f6020828403121561184357611842611495565b5b5f6118508482850161181a565b91505092915050565b5f81905092915050565b828183375f83830152505050565b5f61187c8385611859565b9350611889838584611863565b82840190509392505050565b5f6118a1828486611871565b91508190509392505050565b7f4e487b71000000000000000000000000000000000000000000000000000000005f52603260045260245ffd5b7f4e487b71000000000000000000000000000000000000000000000000000000005f52602260045260245ffd5b5f600282049050600182168061191e57607f821691505b602082108103611931576119306118da565b5b50919050565b5f81519050919050565b5f81905092915050565b5f61195582611937565b61195f8185611941565b935061196f818560208601611563565b80840191505092915050565b5f61198582611549565b61198f8185611859565b935061199f818560208601611563565b80840191505092915050565b5f6119b6828561194b565b91506119c2828461197b565b91508190509392505050565b7f4e487b71000000000000000000000000000000000000000000000000000000005f52601160045260245ffd5b5f611a05826116f4565b9150611a10836116f4565b9250828203905081811115611a2857611a276119ce565b5b92915050565b7f2c000000000000000000000000000000000000000000000000000000000000005f82015250565b5f611a62600183611859565b9150611a6d82611a2e565b600182019050919050565b5f611a83828461194b565b9150611a8e82611a56565b915081905092915050565b7f5d000000000000000000000000000000000000000000000000000000000000005f82015250565b5f611acd600183611859565b9150611ad882611a99565b600182019050919050565b5f611aee828461194b565b9150611af982611ac1565b915081905092915050565b7f4172726179206c656e67746873206d757374206d6174636800000000000000005f82015250565b5f611b38601883611553565b9150611b4382611b04565b602082019050919050565b5f6020820190508181035f830152611b6581611b2c565b9050919050565b5f5ffd5b5f5ffd5b5f5ffd5b5f5f83356001602003843603038112611b9457611b93611b6c565b5b80840192508235915067ffffffffffffffff821115611bb657611bb5611b70565b5b602083019250600182023603831315611bd257611bd1611b74565b5b509250929050565b5f611be5828461197b565b915081905092915050565b7f4b65792065786973747320616e64207265706c6163652069732066616c7365005f82015250565b5f611c24601f83611553565b9150611c2f82611bf0565b602082019050919050565b5f6020820190508181035f830152611c5181611c18565b9050919050565b7f4e487b71000000000000000000000000000000000000000000000000000000005f52604160045260245ffd5b5f819050815f5260205f209050919050565b5f6020601f8301049050919050565b5f82821b905092915050565b5f60088302611ce17fffffffffffffffffffffffffffffffffffffffffffffffffffffffffffffffff82611ca6565b611ceb8683611ca6565b95508019841693508086168417925050509392505050565b5f819050919050565b5f611d26611d21611d1c846116f4565b611d03565b6116f4565b9050919050565b5f819050919050565b611d3f83611d0c565b611d53611d4b82611d2d565b848454611cb2565b825550505050565b5f5f905090565b611d6a611d5b565b611d75818484611d36565b505050565b5b81811015611d9857611d8d5f82611d62565b600181019050611d7b565b5050565b601f821115611ddd57611dae81611c85565b611db784611c97565b81016020851015611dc6578190505b611dda611dd285611c97565b830182611d7a565b50505b505050565b5f82821c905092915050565b5f611dfd5f1984600802611de2565b1980831691505092915050565b5f611e158383611dee565b9150826002028217905092915050565b611e2e82611549565b67ffffffffffffffff811115611e4757611e46611c58565b5b611e518254611907565b611e5c828285611d9c565b5f60209050601f831160018114611e8d575f8415611e7b578287015190505b611e858582611e0a565b865550611eec565b601f198416611e9b86611c85565b5f5b82811015611ec257848901518255600182019150602085019450602081019050611e9d565b86831015611edf5784890151611edb601f891682611dee565b8355505b6001600288020188555050505b505050505050565b7f22000000000000000000000000000000000000000000000000000000000000005f82015250565b5f611f28600183611859565b9150611f3382611ef4565b600182019050919050565b7f223a0000000000000000000000000000000000000000000000000000000000005f82015250565b5f611f72600283611859565b9150611f7d82611f3e565b600282019050919050565b5f611f93828661194b565b9150611f9e82611f1c565b9150611faa828561197b565b9150611fb582611f66565b9150611fc1828461197b565b9150819050949350505050565b7f7d000000000000000000000000000000000000000000000000000000000000005f82015250565b5f612002600183611859565b915061200d82611fce565b600182019050919050565b5f612023828461194b565b915061202e82611ff6565b915081905092915050565b7f4b657920646f6573206e6f7420657869737400000000000000000000000000005f82015250565b5f61206d601283611553565b915061207882612039565b602082019050919050565b5f6020820190508181035f83015261209a81612061565b9050919050565b7f56657273696f6e20696e646578206f7574206f6620626f756e647300000000005f82015250565b5f6120d5601b83611553565b91506120e0826120a1565b602082019050919050565b5f6020820190508181035f830152612102816120c9565b9050919050565b5f61211382611f1c565b915061211f828461197b565b915061212a82611f1c565b915081905092915050565b5f61213f826116f4565b91507fffffffffffffffffffffffffffffffffffffffffffffffffffffffffffffffff8203612171576121706119ce565b5b600182019050919050565b5f612186826116f4565b9150612191836116f4565b92508282019050808211156121a9576121a86119ce565b5b9291505056fea2646970667358221220cd24f117178a1b992cb93a2cce4f991851e6b267e2d2fce482a0c693f880b00364736f6c634300081e0033","linkReferences":{}},"methodIdentifiers":{"json()":"3b06ddd8","owner()":"8da5cb5b","renounceOwnership()":"715018a6","totalKeys()":"488bdabc","transferOwnership(address)":"f2fde38b","valueAt(string,uint256)":"ae06268f","version(string)":"08fb3464","write(string[],string[],bool)":"17e5344e"},"id":21}