{"abi":[{"type":"constructor","inputs":[],"stateMutability":"nonpayable"},{"type":"function","name":"json","inputs":[],"outputs":[{"name":"","type":"string","internalType":"string"}],"stateMutability":"view"},{"type":"function","name":"owner","inputs":[],"outputs":[{"name":"","type":"address","internalType":"address"}],"stateMutability":"view"},{"type":"function","name":"renounceOwnership","inputs":[],"outputs":[],"stateMutability":"nonpayable"},{"type":"function","name":"totalKeys","inputs":[],"outputs":[{"name":"","type":"uint256","internalType":"uint256"}],"stateMutability":"view"},{"type":"function","name":"transferOwnership","inputs":[{"name":"newOwner","type":"address","internalType":"address"}],"outputs":[],"stateMutability":"nonpayable"},{"type":"function","name":"valueAt","inputs":[{"name":"key","type":"string","internalType":"string"},{"name":"versionIndex","type":"uint256","internalType":"uint256"}],"outputs":[{"name":"","type":"string","internalType":"string"}],"stateMutability":"view"},{"type":"function","name":"version","inputs":[{"name":"key","type":"string","internalType":"string"}],"outputs":[{"name":"","type":"string","internalType":"string"}],"stateMutability":"view"},{"type":"function","name":"write","inputs":[{"name":"keys","type":"string[]","internalType":"string[]"},{"name":"values","type":"string[]","internalType":"string[]"},{"name":"replace","type":"bool","internalType":"bool"}],"outputs":[],"stateMutability":"nonpayable"},{"type":"event","name":"OwnershipTransferred","inputs":[{"name":"previousOwner","type":"address","indexed":true,"internalType":"address"},{"name":"newOwner","type":"address","indexed":true,"internalType":"address"}],"anonymous":false},{"type":"error","name":"OwnableInvalidOwner","inputs":[{"name":"owner","type":"address","internalType":"address"}]},{"type":"error","name":"OwnableUnauthorizedAccount","inputs":[{"name":"account","type":"address","internalType":"address"}]}],"bytecode":{"object":"0x608060405234801561000f575f5ffd5b50335f73ffffffffffffffffffffffffffffffffffffffff168173ffffffffffffffffffffffffffffffffffffffff1603610081575f6040517f1e4fbdf70000000000000000000000000000000000000000000000000000000081526004016100789190610196565b60405180910390fd5b6100908161009660201b60201c565b506101af565b5f5f5f9054906101000a900473ffffffffffffffffffffffffffffffffffffffff169050815f5f6101000a81548173ffffffffffffffffffffffffffffffffffffffff021916908373ffffffffffffffffffffffffffffffffffffffff1602179055508173ffffffffffffffffffffffffffffffffffffffff168173ffffffffffffffffffffffffffffffffffffffff167f8be0079c531659141344cd1fd0a4f28419497f9722a3daafe3b4186f6b6457e060405160405180910390a35050565b5f73ffffffffffffffffffffffffffffffffffffffff82169050919050565b5f61018082610157565b9050919050565b61019081610176565b82525050565b5f6020820190506101a95f830184610187565b92915050565b6120a5806101bc5f395ff3fe608060405234801561000f575f5ffd5b5060043610610086575f3560e01c8063715018a611610059578063715018a6146101125780638da5cb5b1461011c578063ae06268f1461013a578063f2fde38b1461016a57610086565b806308fb34641461008a57806317e5344e146100ba5780633b06ddd8146100d6578063488bdabc146100f4575b5f5ffd5b6100a4600480360381019061009f91906113b0565b610186565b6040516100b1919061146b565b60405180910390f35b6100d460048036038101906100cf9190611515565b610382565b005b6100de610647565b6040516100eb919061146b565b60405180910390f35b6100fc610906565b60405161010991906115be565b60405180910390f35b61011a610912565b005b610124610925565b6040516101319190611616565b60405180910390f35b610154600480360381019061014f9190611659565b61094c565b604051610161919061146b565b60405180910390f35b610184600480360381019061017f91906116e0565b610acf565b005b60605f6001848460405161019b929190611747565b908152602001604051809103902090505f8180549050036101f4576040518060400160405280600281526020017f5b5d00000000000000000000000000000000000000000000000000000000000081525091505061037c565b5f6040518060400160405280600181526020017f5b0000000000000000000000000000000000000000000000000000000000000081525090505f5f90505b828054905081101561035357816102e98483815481106102555761025461175f565b5b905f5260205f20018054610268906117b9565b80601f0160208091040260200160405190810160405280929190818152602001828054610294906117b9565b80156102df5780601f106102b6576101008083540402835291602001916102df565b820191905f5260205f20905b8154815290600101906020018083116102c257829003601f168201915b5050505050610b53565b6040516020016102fa92919061185d565b60405160208183030381529060405291506001838054905061031c91906118ad565b8110156103465781604051602001610334919061192a565b60405160208183030381529060405291505b8080600101915050610232565b50806040516020016103659190611995565b604051602081830303815290604052905080925050505b92915050565b61038a610d08565b8282905085859050146103d2576040517f08c379a00000000000000000000000000000000000000000000000000000000081526004016103c990611a00565b60405180910390fd5b5f5f90505b8585905081101561063f575f8686838181106103f6576103f561175f565b5b90506020028101906104089190611a2a565b8080601f0160208091040260200160405190810160405280939291908181526020018383808284375f81840152601f19601f8201169050808301925050505050505090505f8585848181106104605761045f61175f565b5b90506020028101906104729190611a2a565b8080601f0160208091040260200160405190810160405280939291908181526020018383808284375f81840152601f19601f8201169050808301925050505050505090506002826040516104c69190611a8c565b90815260200160405180910390205f9054906101000a900460ff16156105795783610526576040517f08c379a000000000000000000000000000000000000000000000000000000000815260040161051d90611aec565b60405180910390fd5b6001826040516105369190611a8c565b908152602001604051809103902081908060018154018082558091505060019003905f5260205f20015f9091909190915090816105739190611cd7565b50610630565b6001826040516105899190611a8c565b908152602001604051809103902081908060018154018082558091505060019003905f5260205f20015f9091909190915090816105c69190611cd7565b5060016002836040516105d99190611a8c565b90815260200160405180910390205f6101000a81548160ff021916908315150217905550600382908060018154018082558091505060019003905f5260205f20015f90919091909150908161062e9190611cd7565b505b505080806001019150506103d7565b505050505050565b60605f60038054905003610692576040518060400160405280600281526020017f7b7d0000000000000000000000000000000000000000000000000000000000008152509050610903565b5f6040518060400160405280600181526020017f7b0000000000000000000000000000000000000000000000000000000000000081525090505f5f90505b6003805490508110156108db575f600382815481106106f2576106f161175f565b5b905f5260205f20018054610705906117b9565b80601f0160208091040260200160405190810160405280929190818152602001828054610731906117b9565b801561077c5780601f106107535761010080835404028352916020019161077c565b820191905f5260205f20905b81548152906001019060200180831161075f57829003601f168201915b505050505090505f6001826040516107949190611a8c565b908152602001604051809103902090505f81600183805490506107b791906118ad565b815481106107c8576107c761175f565b5b905f5260205f200180546107db906117b9565b80601f0160208091040260200160405190810160405280929190818152602001828054610807906117b9565b80156108525780601f1061082957610100808354040283529160200191610852565b820191905f5260205f20905b81548152906001019060200180831161083557829003601f168201915b505050505090508461086384610d8f565b61086c83610b53565b60405160200161087e93929190611e3a565b604051602081830303815290604052945060016003805490506108a191906118ad565b8410156108cb57846040516020016108b9919061192a565b60405160208183030381529060405294505b50505080806001019150506106d0565b50806040516020016108ed9190611eca565b6040516020818303038152906040529050809150505b90565b5f600380549050905090565b61091a610d08565b6109235f611028565b565b5f5f5f9054906101000a900473ffffffffffffffffffffffffffffffffffffffff16905090565b606060028484604051610960929190611747565b90815260200160405180910390205f9054906101000a900460ff166109ba576040517f08c379a00000000000000000000000000000000000000000000000000000000081526004016109b190611f35565b60405180910390fd5b5f600185856040516109cd929190611747565b9081526020016040518091039020905080805490508310610a23576040517f08c379a0000000000000000000000000000000000000000000000000000000008152600401610a1a90611f9d565b60405180910390fd5b808381548110610a3657610a3561175f565b5b905f5260205f20018054610a49906117b9565b80601f0160208091040260200160405190810160405280929190818152602001828054610a75906117b9565b8015610ac05780601f10610a9757610100808354040283529160200191610ac0565b820191905f5260205f20905b815481529060010190602001808311610aa357829003601f168201915b50505050509150509392505050565b610ad7610d08565b5f73ffffffffffffffffffffffffffffffffffffffff168173ffffffffffffffffffffffffffffffffffffffff1603610b47575f6040517f1e4fbdf7000000000000000000000000000000000000000000000000000000008152600401610b3e9190611616565b60405180910390fd5b610b5081611028565b50565b60605f8290505f8151118015610c9957507f7b00000000000000000000000000000000000000000000000000000000000000815f81518110610b9857610b9761175f565b5b602001015160f81c60f81b7effffffffffffffffffffffffffffffffffffffffffffffffffffffffffffff19161480610c2f57507f5b00000000000000000000000000000000000000000000000000000000000000815f81518110610c0057610bff61175f565b5b602001015160f81c60f81b7effffffffffffffffffffffffffffffffffffffffffffffffffffffffffffff1916145b80610c9857507f2200000000000000000000000000000000000000000000000000000000000000815f81518110610c6957610c6861175f565b5b602001015160f81c60f81b7effffffffffffffffffffffffffffffffffffffffffffffffffffffffffffff1916145b5b80610ca95750610ca8836110e9565b5b80610cb95750610cb88361124e565b5b80610cc95750610cc8836112ef565b5b15610cd75782915050610d03565b610ce083610d8f565b604051602001610cf09190611fbb565b6040516020818303038152906040529150505b919050565b610d10611340565b73ffffffffffffffffffffffffffffffffffffffff16610d2e610925565b73ffffffffffffffffffffffffffffffffffffffff1614610d8d57610d51611340565b6040517f118cdaa7000000000000000000000000000000000000000000000000000000008152600401610d849190611616565b60405180910390fd5b565b60605f8290505f60028251610da49190611fe7565b67ffffffffffffffff811115610dbd57610dbc611b0a565b5b6040519080825280601f01601f191660200182016040528015610def5781602001600182028036833780820191505090505b5090505f5f90505f5f90505b8351811015610f51577f2200000000000000000000000000000000000000000000000000000000000000848281518110610e3857610e3761175f565b5b602001015160f81c60f81b7effffffffffffffffffffffffffffffffffffffffffffffffffffffffffffff191603610ed9577f5c00000000000000000000000000000000000000000000000000000000000000838380610e9790612028565b945081518110610eaa57610ea961175f565b5b60200101907effffffffffffffffffffffffffffffffffffffffffffffffffffffffffffff191690815f1a9053505b838181518110610eec57610eeb61175f565b5b602001015160f81c60f81b838380610f0390612028565b945081518110610f1657610f1561175f565b5b60200101907effffffffffffffffffffffffffffffffffffffffffffffffffffffffffffff191690815f1a9053508080600101915050610dfb565b505f8167ffffffffffffffff811115610f6d57610f6c611b0a565b5b6040519080825280601f01601f191660200182016040528015610f9f5781602001600182028036833780820191505090505b5090505f5f90505b8281101561101b57838181518110610fc257610fc161175f565b5b602001015160f81c60f81b828281518110610fe057610fdf61175f565b5b60200101907effffffffffffffffffffffffffffffffffffffffffffffffffffffffffffff191690815f1a9053508080600101915050610fa7565b5080945050505050919050565b5f5f5f9054906101000a900473ffffffffffffffffffffffffffffffffffffffff169050815f5f6101000a81548173ffffffffffffffffffffffffffffffffffffffff021916908373ffffffffffffffffffffffffffffffffffffffff1602179055508173ffffffffffffffffffffffffffffffffffffffff168173ffffffffffffffffffffffffffffffffffffffff167f8be0079c531659141344cd1fd0a4f28419497f9722a3daafe3b4186f6b6457e060405160405180910390a35050565b5f5f8290505f8151036110ff575f915050611249565b5f5f90505b8151811015611242575f603060f81b8383815181106111265761112561175f565b5b602001015160f81c60f81b7effffffffffffffffffffffffffffffffffffffffffffffffffffffffffffff1916101580156111a45750603960f81b8383815181106111745761117361175f565b5b602001015160f81c60f81b7effffffffffffffffffffffffffffffffffffffffffffffffffffffffffffff191611155b90505f5f8314801561121457507f2d000000000000000000000000000000000000000000000000000000000000008484815181106111e5576111e461175f565b5b602001015160f81c60f81b7effffffffffffffffffffffffffffffffffffffffffffffffffffffffffffff1916145b905081158015611222575080155b15611233575f945050505050611249565b50508080600101915050611104565b5060019150505b919050565b5f7f6273151f959616268004b58dbb21e5c851b7b8d04498b4aabee12291d22fc034826040516020016112819190611a8c565b6040516020818303038152906040528051906020012014806112e857507fba9154e0baa69c78e0ca563b867df81bae9d177c4ea1452c35c84386a70f0f7a826040516020016112d09190611a8c565b60405160208183030381529060405280519060200120145b9050919050565b5f7fefbde2c3aee204a69b7696d4b10ff31137fe78e3946306284f806e2dfc68b805826040516020016113229190611a8c565b60405160208183030381529060405280519060200120149050919050565b5f33905090565b5f5ffd5b5f5ffd5b5f5ffd5b5f5ffd5b5f5ffd5b5f5f83601f8401126113705761136f61134f565b5b8235905067ffffffffffffffff81111561138d5761138c611353565b5b6020830191508360018202830111156113a9576113a8611357565b5b9250929050565b5f5f602083850312156113c6576113c5611347565b5b5f83013567ffffffffffffffff8111156113e3576113e261134b565b5b6113ef8582860161135b565b92509250509250929050565b5f81519050919050565b5f82825260208201905092915050565b8281835e5f83830152505050565b5f601f19601f8301169050919050565b5f61143d826113fb565b6114478185611405565b9350611457818560208601611415565b61146081611423565b840191505092915050565b5f6020820190508181035f8301526114838184611433565b905092915050565b5f5f83601f8401126114a05761149f61134f565b5b8235905067ffffffffffffffff8111156114bd576114bc611353565b5b6020830191508360208202830111156114d9576114d8611357565b5b9250929050565b5f8115159050919050565b6114f4816114e0565b81146114fe575f5ffd5b50565b5f8135905061150f816114eb565b92915050565b5f5f5f5f5f6060868803121561152e5761152d611347565b5b5f86013567ffffffffffffffff81111561154b5761154a61134b565b5b6115578882890161148b565b9550955050602086013567ffffffffffffffff81111561157a5761157961134b565b5b6115868882890161148b565b9350935050604061159988828901611501565b9150509295509295909350565b5f819050919050565b6115b8816115a6565b82525050565b5f6020820190506115d15f8301846115af565b92915050565b5f73ffffffffffffffffffffffffffffffffffffffff82169050919050565b5f611600826115d7565b9050919050565b611610816115f6565b82525050565b5f6020820190506116295f830184611607565b92915050565b611638816115a6565b8114611642575f5ffd5b50565b5f813590506116538161162f565b92915050565b5f5f5f604084860312156116705761166f611347565b5b5f84013567ffffffffffffffff81111561168d5761168c61134b565b5b6116998682870161135b565b935093505060206116ac86828701611645565b9150509250925092565b6116bf816115f6565b81146116c9575f5ffd5b50565b5f813590506116da816116b6565b92915050565b5f602082840312156116f5576116f4611347565b5b5f611702848285016116cc565b91505092915050565b5f81905092915050565b828183375f83830152505050565b5f61172e838561170b565b935061173b838584611715565b82840190509392505050565b5f611753828486611723565b91508190509392505050565b7f4e487b71000000000000000000000000000000000000000000000000000000005f52603260045260245ffd5b7f4e487b71000000000000000000000000000000000000000000000000000000005f52602260045260245ffd5b5f60028204905060018216806117d057607f821691505b6020821081036117e3576117e261178c565b5b50919050565b5f81519050919050565b5f81905092915050565b5f611807826117e9565b61181181856117f3565b9350611821818560208601611415565b80840191505092915050565b5f611837826113fb565b611841818561170b565b9350611851818560208601611415565b80840191505092915050565b5f61186882856117fd565b9150611874828461182d565b91508190509392505050565b7f4e487b71000000000000000000000000000000000000000000000000000000005f52601160045260245ffd5b5f6118b7826115a6565b91506118c2836115a6565b92508282039050818111156118da576118d9611880565b5b92915050565b7f2c000000000000000000000000000000000000000000000000000000000000005f82015250565b5f61191460018361170b565b915061191f826118e0565b600182019050919050565b5f61193582846117fd565b915061194082611908565b915081905092915050565b7f5d000000000000000000000000000000000000000000000000000000000000005f82015250565b5f61197f60018361170b565b915061198a8261194b565b600182019050919050565b5f6119a082846117fd565b91506119ab82611973565b915081905092915050565b7f4172726179206c656e67746873206d757374206d6174636800000000000000005f82015250565b5f6119ea601883611405565b91506119f5826119b6565b602082019050919050565b5f6020820190508181035f830152611a17816119de565b9050919050565b5f5ffd5b5f5ffd5b5f5ffd5b5f5f83356001602003843603038112611a4657611a45611a1e565b5b80840192508235915067ffffffffffffffff821115611a6857611a67611a22565b5b602083019250600182023603831315611a8457611a83611a26565b5b509250929050565b5f611a97828461182d565b915081905092915050565b7f4b65792065786973747320616e64207265706c6163652069732066616c7365005f82015250565b5f611ad6601f83611405565b9150611ae182611aa2565b602082019050919050565b5f6020820190508181035f830152611b0381611aca565b9050919050565b7f4e487b71000000000000000000000000000000000000000000000000000000005f52604160045260245ffd5b5f819050815f5260205f209050919050565b5f6020601f8301049050919050565b5f82821b905092915050565b5f60088302611b937fffffffffffffffffffffffffffffffffffffffffffffffffffffffffffffffff82611b58565b611b9d8683611b58565b95508019841693508086168417925050509392505050565b5f819050919050565b5f611bd8611bd3611bce846115a6565b611bb5565b6115a6565b9050919050565b5f819050919050565b611bf183611bbe565b611c05611bfd82611bdf565b848454611b64565b825550505050565b5f5f905090565b611c1c611c0d565b611c27818484611be8565b505050565b5b81811015611c4a57611c3f5f82611c14565b600181019050611c2d565b5050565b601f821115611c8f57611c6081611b37565b611c6984611b49565b81016020851015611c78578190505b611c8c611c8485611b49565b830182611c2c565b50505b505050565b5f82821c905092915050565b5f611caf5f1984600802611c94565b1980831691505092915050565b5f611cc78383611ca0565b9150826002028217905092915050565b611ce0826113fb565b67ffffffffffffffff811115611cf957611cf8611b0a565b5b611d0382546117b9565b611d0e828285611c4e565b5f60209050601f831160018114611d3f575f8415611d2d578287015190505b611d378582611cbc565b865550611d9e565b601f198416611d4d86611b37565b5f5b82811015611d7457848901518255600182019150602085019450602081019050611d4f565b86831015611d915784890151611d8d601f891682611ca0565b8355505b6001600288020188555050505b505050505050565b7f22000000000000000000000000000000000000000000000000000000000000005f82015250565b5f611dda60018361170b565b9150611de582611da6565b600182019050919050565b7f223a0000000000000000000000000000000000000000000000000000000000005f82015250565b5f611e2460028361170b565b9150611e2f82611df0565b600282019050919050565b5f611e4582866117fd565b9150611e5082611dce565b9150611e5c828561182d565b9150611e6782611e18565b9150611e73828461182d565b9150819050949350505050565b7f7d000000000000000000000000000000000000000000000000000000000000005f82015250565b5f611eb460018361170b565b9150611ebf82611e80565b600182019050919050565b5f611ed582846117fd565b9150611ee082611ea8565b915081905092915050565b7f4b657920646f6573206e6f7420657869737400000000000000000000000000005f82015250565b5f611f1f601283611405565b9150611f2a82611eeb565b602082019050919050565b5f6020820190508181035f830152611f4c81611f13565b9050919050565b7f56657273696f6e20696e646578206f7574206f6620626f756e647300000000005f82015250565b5f611f87601b83611405565b9150611f9282611f53565b602082019050919050565b5f6020820190508181035f830152611fb481611f7b565b9050919050565b5f611fc582611dce565b9150611fd1828461182d565b9150611fdc82611dce565b915081905092915050565b5f611ff1826115a6565b9150611ffc836115a6565b925082820261200a816115a6565b9150828204841483151761202157612020611880565b5b5092915050565b5f612032826115a6565b91507fffffffffffffffffffffffffffffffffffffffffffffffffffffffffffffffff820361206457612063611880565b5b60018201905091905056fea264697066735822122017041e7ddb3628096b2a65f1c48d604d5aa47e9348b474936d196a2f3d85074964736f6c634300081e0033","linkReferences":{}},"methodIdentifiers":{"json()":"3b06ddd8","owner()":"8da5cb5b","renounceOwnership()":"715018a6","totalKeys()":"488bdabc","transferOwnership(address)":"f2fde38b","valueAt(string,uint256)":"ae06268f","version(string)":"08fb3464","write(string[],string[],bool)":"17e5344e"},"id":21}