{"abi":[{"type":"constructor","inputs":[],"stateMutability":"nonpayable"},{"type":"function","name":"json","inputs":[],"outputs":[{"name":"","type":"string","internalType":"string"}],"stateMutability":"view"},{"type":"function","name":"latestVersion","inputs":[{"name":"key","type":"string","internalType":"string"}],"outputs":[{"name":"","type":"uint256","internalType":"uint256"}],"stateMutability":"view"},{"type":"function","name":"owner","inputs":[],"outputs":[{"name":"","type":"address","internalType":"address"}],"stateMutability":"view"},{"type":"function","name":"renounceOwnership","inputs":[],"outputs":[],"stateMutability":"nonpayable"},{"type":"function","name":"totalKeys","inputs":[],"outputs":[{"name":"","type":"uint256","internalType":"uint256"}],"stateMutability":"view"},{"type":"function","name":"transferOwnership","inputs":[{"name":"newOwner","type":"address","internalType":"address"}],"outputs":[],"stateMutability":"nonpayable"},{"type":"function","name":"valueAt","inputs":[{"name":"key","type":"string","internalType":"string"},{"name":"versionIndex","type":"uint256","internalType":"uint256"}],"outputs":[{"name":"","type":"string","internalType":"string"}],"stateMutability":"view"},{"type":"function","name":"version","inputs":[{"name":"key","type":"string","internalType":"string"}],"outputs":[{"name":"","type":"string","internalType":"string"}],"stateMutability":"view"},{"type":"function","name":"write","inputs":[{"name":"keys","type":"string[]","internalType":"string[]"},{"name":"values","type":"string[]","internalType":"string[]"},{"name":"replace","type":"bool","internalType":"bool"}],"outputs":[],"stateMutability":"nonpayable"},{"type":"event","name":"OwnershipTransferred","inputs":[{"name":"previousOwner","type":"address","indexed":true,"internalType":"address"},{"name":"newOwner","type":"address","indexed":true,"internalType":"address"}],"anonymous":false},{"type":"error","name":"OwnableInvalidOwner","inputs":[{"name":"owner","type":"address","internalType":"address"}]},{"type":"error","name":"OwnableUnauthorizedAccount","inputs":[{"name":"account","type":"address","internalType":"address"}]}],"bytecode":{"object":"0x608060405234801561000f575f5ffd5b50335f73ffffffffffffffffffffffffffffffffffffffff168173ffffffffffffffffffffffffffffffffffffffff1603610081575f6040517f1e4fbdf70000000000000000000000000000000000000000000000000000000081526004016100789190610196565b60405180910390fd5b6100908161009660201b60201c565b506101af565b5f5f5f9054906101000a900473ffffffffffffffffffffffffffffffffffffffff169050815f5f6101000a81548173ffffffffffffffffffffffffffffffffffffffff021916908373ffffffffffffffffffffffffffffffffffffffff1602179055508173ffffffffffffffffffffffffffffffffffffffff168173ffffffffffffffffffffffffffffffffffffffff167f8be0079c531659141344cd1fd0a4f28419497f9722a3daafe3b4186f6b6457e060405160405180910390a35050565b5f73ffffffffffffffffffffffffffffffffffffffff82169050919050565b5f61018082610157565b9050919050565b61019081610176565b82525050565b5f6020820190506101a95f830184610187565b92915050565b612179806101bc5f395ff3fe608060405234801561000f575f5ffd5b5060043610610091575f3560e01c8063488bdabc11610064578063488bdabc1461012f578063715018a61461014d5780638da5cb5b14610157578063ae06268f14610175578063f2fde38b146101a557610091565b8063070f8f5a1461009557806308fb3464146100c557806317e5344e146100f55780633b06ddd814610111575b5f5ffd5b6100af60048036038101906100aa9190611484565b6101c1565b6040516100bc91906114e7565b60405180910390f35b6100df60048036038101906100da9190611484565b61025a565b6040516100ec9190611570565b60405180910390f35b61010f600480360381019061010a919061161a565b610456565b005b61011961071b565b6040516101269190611570565b60405180910390f35b6101376109da565b60405161014491906114e7565b60405180910390f35b6101556109e6565b005b61015f6109f9565b60405161016c91906116ea565b60405180910390f35b61018f600480360381019061018a919061172d565b610a20565b60405161019c9190611570565b60405180910390f35b6101bf60048036038101906101ba91906117b4565b610ba3565b005b5f600283836040516101d492919061181b565b90815260200160405180910390205f9054906101000a900460ff1661022e576040517f08c379a00000000000000000000000000000000000000000000000000000000081526004016102259061187d565b60405180910390fd5b6001838360405161024092919061181b565b908152602001604051809103902080549050905092915050565b60605f6001848460405161026f92919061181b565b908152602001604051809103902090505f8180549050036102c8576040518060400160405280600281526020017f5b5d000000000000000000000000000000000000000000000000000000000000815250915050610450565b5f6040518060400160405280600181526020017f5b0000000000000000000000000000000000000000000000000000000000000081525090505f5f90505b828054905081101561042757816103bd8483815481106103295761032861189b565b5b905f5260205f2001805461033c906118f5565b80601f0160208091040260200160405190810160405280929190818152602001828054610368906118f5565b80156103b35780601f1061038a576101008083540402835291602001916103b3565b820191905f5260205f20905b81548152906001019060200180831161039657829003601f168201915b5050505050610c27565b6040516020016103ce929190611999565b6040516020818303038152906040529150600183805490506103f091906119e9565b81101561041a57816040516020016104089190611a66565b60405160208183030381529060405291505b8080600101915050610306565b50806040516020016104399190611ad1565b604051602081830303815290604052905080925050505b92915050565b61045e610ddc565b8282905085859050146104a6576040517f08c379a000000000000000000000000000000000000000000000000000000000815260040161049d90611b3c565b60405180910390fd5b5f5f90505b85859050811015610713575f8686838181106104ca576104c961189b565b5b90506020028101906104dc9190611b66565b8080601f0160208091040260200160405190810160405280939291908181526020018383808284375f81840152601f19601f8201169050808301925050505050505090505f8585848181106105345761053361189b565b5b90506020028101906105469190611b66565b8080601f0160208091040260200160405190810160405280939291908181526020018383808284375f81840152601f19601f82011690508083019250505050505050905060028260405161059a9190611bc8565b90815260200160405180910390205f9054906101000a900460ff161561064d57836105fa576040517f08c379a00000000000000000000000000000000000000000000000000000000081526004016105f190611c28565b60405180910390fd5b60018260405161060a9190611bc8565b908152602001604051809103902081908060018154018082558091505060019003905f5260205f20015f9091909190915090816106479190611e13565b50610704565b60018260405161065d9190611bc8565b908152602001604051809103902081908060018154018082558091505060019003905f5260205f20015f90919091909150908161069a9190611e13565b5060016002836040516106ad9190611bc8565b90815260200160405180910390205f6101000a81548160ff021916908315150217905550600382908060018154018082558091505060019003905f5260205f20015f9091909190915090816107029190611e13565b505b505080806001019150506104ab565b505050505050565b60605f60038054905003610766576040518060400160405280600281526020017f7b7d00000000000000000000000000000000000000000000000000000000000081525090506109d7565b5f6040518060400160405280600181526020017f7b0000000000000000000000000000000000000000000000000000000000000081525090505f5f90505b6003805490508110156109af575f600382815481106107c6576107c561189b565b5b905f5260205f200180546107d9906118f5565b80601f0160208091040260200160405190810160405280929190818152602001828054610805906118f5565b80156108505780601f1061082757610100808354040283529160200191610850565b820191905f5260205f20905b81548152906001019060200180831161083357829003601f168201915b505050505090505f6001826040516108689190611bc8565b908152602001604051809103902090505f816001838054905061088b91906119e9565b8154811061089c5761089b61189b565b5b905f5260205f200180546108af906118f5565b80601f01602080910402602001604051908101604052809291908181526020018280546108db906118f5565b80156109265780601f106108fd57610100808354040283529160200191610926565b820191905f5260205f20905b81548152906001019060200180831161090957829003601f168201915b505050505090508461093784610e63565b61094083610c27565b60405160200161095293929190611f76565b6040516020818303038152906040529450600160038054905061097591906119e9565b84101561099f578460405160200161098d9190611a66565b60405160208183030381529060405294505b50505080806001019150506107a4565b50806040516020016109c19190612006565b6040516020818303038152906040529050809150505b90565b5f600380549050905090565b6109ee610ddc565b6109f75f6110fc565b565b5f5f5f9054906101000a900473ffffffffffffffffffffffffffffffffffffffff16905090565b606060028484604051610a3492919061181b565b90815260200160405180910390205f9054906101000a900460ff16610a8e576040517f08c379a0000000000000000000000000000000000000000000000000000000008152600401610a859061187d565b60405180910390fd5b5f60018585604051610aa192919061181b565b9081526020016040518091039020905080805490508310610af7576040517f08c379a0000000000000000000000000000000000000000000000000000000008152600401610aee90612071565b60405180910390fd5b808381548110610b0a57610b0961189b565b5b905f5260205f20018054610b1d906118f5565b80601f0160208091040260200160405190810160405280929190818152602001828054610b49906118f5565b8015610b945780601f10610b6b57610100808354040283529160200191610b94565b820191905f5260205f20905b815481529060010190602001808311610b7757829003601f168201915b50505050509150509392505050565b610bab610ddc565b5f73ffffffffffffffffffffffffffffffffffffffff168173ffffffffffffffffffffffffffffffffffffffff1603610c1b575f6040517f1e4fbdf7000000000000000000000000000000000000000000000000000000008152600401610c1291906116ea565b60405180910390fd5b610c24816110fc565b50565b60605f8290505f8151118015610d6d57507f7b00000000000000000000000000000000000000000000000000000000000000815f81518110610c6c57610c6b61189b565b5b602001015160f81c60f81b7effffffffffffffffffffffffffffffffffffffffffffffffffffffffffffff19161480610d0357507f5b00000000000000000000000000000000000000000000000000000000000000815f81518110610cd457610cd361189b565b5b602001015160f81c60f81b7effffffffffffffffffffffffffffffffffffffffffffffffffffffffffffff1916145b80610d6c57507f2200000000000000000000000000000000000000000000000000000000000000815f81518110610d3d57610d3c61189b565b5b602001015160f81c60f81b7effffffffffffffffffffffffffffffffffffffffffffffffffffffffffffff1916145b5b80610d7d5750610d7c836111bd565b5b80610d8d5750610d8c83611322565b5b80610d9d5750610d9c836113c3565b5b15610dab5782915050610dd7565b610db483610e63565b604051602001610dc4919061208f565b6040516020818303038152906040529150505b919050565b610de4611414565b73ffffffffffffffffffffffffffffffffffffffff16610e026109f9565b73ffffffffffffffffffffffffffffffffffffffff1614610e6157610e25611414565b6040517f118cdaa7000000000000000000000000000000000000000000000000000000008152600401610e5891906116ea565b60405180910390fd5b565b60605f8290505f60028251610e7891906120bb565b67ffffffffffffffff811115610e9157610e90611c46565b5b6040519080825280601f01601f191660200182016040528015610ec35781602001600182028036833780820191505090505b5090505f5f90505f5f90505b8351811015611025577f2200000000000000000000000000000000000000000000000000000000000000848281518110610f0c57610f0b61189b565b5b602001015160f81c60f81b7effffffffffffffffffffffffffffffffffffffffffffffffffffffffffffff191603610fad577f5c00000000000000000000000000000000000000000000000000000000000000838380610f6b906120fc565b945081518110610f7e57610f7d61189b565b5b60200101907effffffffffffffffffffffffffffffffffffffffffffffffffffffffffffff191690815f1a9053505b838181518110610fc057610fbf61189b565b5b602001015160f81c60f81b838380610fd7906120fc565b945081518110610fea57610fe961189b565b5b60200101907effffffffffffffffffffffffffffffffffffffffffffffffffffffffffffff191690815f1a9053508080600101915050610ecf565b505f8167ffffffffffffffff81111561104157611040611c46565b5b6040519080825280601f01601f1916602001820160405280156110735781602001600182028036833780820191505090505b5090505f5f90505b828110156110ef578381815181106110965761109561189b565b5b602001015160f81c60f81b8282815181106110b4576110b361189b565b5b60200101907effffffffffffffffffffffffffffffffffffffffffffffffffffffffffffff191690815f1a905350808060010191505061107b565b5080945050505050919050565b5f5f5f9054906101000a900473ffffffffffffffffffffffffffffffffffffffff169050815f5f6101000a81548173ffffffffffffffffffffffffffffffffffffffff021916908373ffffffffffffffffffffffffffffffffffffffff1602179055508173ffffffffffffffffffffffffffffffffffffffff168173ffffffffffffffffffffffffffffffffffffffff167f8be0079c531659141344cd1fd0a4f28419497f9722a3daafe3b4186f6b6457e060405160405180910390a35050565b5f5f8290505f8151036111d3575f91505061131d565b5f5f90505b8151811015611316575f603060f81b8383815181106111fa576111f961189b565b5b602001015160f81c60f81b7effffffffffffffffffffffffffffffffffffffffffffffffffffffffffffff1916101580156112785750603960f81b8383815181106112485761124761189b565b5b602001015160f81c60f81b7effffffffffffffffffffffffffffffffffffffffffffffffffffffffffffff191611155b90505f5f831480156112e857507f2d000000000000000000000000000000000000000000000000000000000000008484815181106112b9576112b861189b565b5b602001015160f81c60f81b7effffffffffffffffffffffffffffffffffffffffffffffffffffffffffffff1916145b9050811580156112f6575080155b15611307575f94505050505061131d565b505080806001019150506111d8565b5060019150505b919050565b5f7f6273151f959616268004b58dbb21e5c851b7b8d04498b4aabee12291d22fc034826040516020016113559190611bc8565b6040516020818303038152906040528051906020012014806113bc57507fba9154e0baa69c78e0ca563b867df81bae9d177c4ea1452c35c84386a70f0f7a826040516020016113a49190611bc8565b60405160208183030381529060405280519060200120145b9050919050565b5f7fefbde2c3aee204a69b7696d4b10ff31137fe78e3946306284f806e2dfc68b805826040516020016113f69190611bc8565b60405160208183030381529060405280519060200120149050919050565b5f33905090565b5f5ffd5b5f5ffd5b5f5ffd5b5f5ffd5b5f5ffd5b5f5f83601f84011261144457611443611423565b5b8235905067ffffffffffffffff81111561146157611460611427565b5b60208301915083600182028301111561147d5761147c61142b565b5b9250929050565b5f5f6020838503121561149a5761149961141b565b5b5f83013567ffffffffffffffff8111156114b7576114b661141f565b5b6114c38582860161142f565b92509250509250929050565b5f819050919050565b6114e1816114cf565b82525050565b5f6020820190506114fa5f8301846114d8565b92915050565b5f81519050919050565b5f82825260208201905092915050565b8281835e5f83830152505050565b5f601f19601f8301169050919050565b5f61154282611500565b61154c818561150a565b935061155c81856020860161151a565b61156581611528565b840191505092915050565b5f6020820190508181035f8301526115888184611538565b905092915050565b5f5f83601f8401126115a5576115a4611423565b5b8235905067ffffffffffffffff8111156115c2576115c1611427565b5b6020830191508360208202830111156115de576115dd61142b565b5b9250929050565b5f8115159050919050565b6115f9816115e5565b8114611603575f5ffd5b50565b5f81359050611614816115f0565b92915050565b5f5f5f5f5f606086880312156116335761163261141b565b5b5f86013567ffffffffffffffff8111156116505761164f61141f565b5b61165c88828901611590565b9550955050602086013567ffffffffffffffff81111561167f5761167e61141f565b5b61168b88828901611590565b9350935050604061169e88828901611606565b9150509295509295909350565b5f73ffffffffffffffffffffffffffffffffffffffff82169050919050565b5f6116d4826116ab565b9050919050565b6116e4816116ca565b82525050565b5f6020820190506116fd5f8301846116db565b92915050565b61170c816114cf565b8114611716575f5ffd5b50565b5f8135905061172781611703565b92915050565b5f5f5f604084860312156117445761174361141b565b5b5f84013567ffffffffffffffff8111156117615761176061141f565b5b61176d8682870161142f565b9350935050602061178086828701611719565b9150509250925092565b611793816116ca565b811461179d575f5ffd5b50565b5f813590506117ae8161178a565b92915050565b5f602082840312156117c9576117c861141b565b5b5f6117d6848285016117a0565b91505092915050565b5f81905092915050565b828183375f83830152505050565b5f61180283856117df565b935061180f8385846117e9565b82840190509392505050565b5f6118278284866117f7565b91508190509392505050565b7f4b657920646f6573206e6f7420657869737400000000000000000000000000005f82015250565b5f61186760128361150a565b915061187282611833565b602082019050919050565b5f6020820190508181035f8301526118948161185b565b9050919050565b7f4e487b71000000000000000000000000000000000000000000000000000000005f52603260045260245ffd5b7f4e487b71000000000000000000000000000000000000000000000000000000005f52602260045260245ffd5b5f600282049050600182168061190c57607f821691505b60208210810361191f5761191e6118c8565b5b50919050565b5f81519050919050565b5f81905092915050565b5f61194382611925565b61194d818561192f565b935061195d81856020860161151a565b80840191505092915050565b5f61197382611500565b61197d81856117df565b935061198d81856020860161151a565b80840191505092915050565b5f6119a48285611939565b91506119b08284611969565b91508190509392505050565b7f4e487b71000000000000000000000000000000000000000000000000000000005f52601160045260245ffd5b5f6119f3826114cf565b91506119fe836114cf565b9250828203905081811115611a1657611a156119bc565b5b92915050565b7f2c000000000000000000000000000000000000000000000000000000000000005f82015250565b5f611a506001836117df565b9150611a5b82611a1c565b600182019050919050565b5f611a718284611939565b9150611a7c82611a44565b915081905092915050565b7f5d000000000000000000000000000000000000000000000000000000000000005f82015250565b5f611abb6001836117df565b9150611ac682611a87565b600182019050919050565b5f611adc8284611939565b9150611ae782611aaf565b915081905092915050565b7f4172726179206c656e67746873206d757374206d6174636800000000000000005f82015250565b5f611b2660188361150a565b9150611b3182611af2565b602082019050919050565b5f6020820190508181035f830152611b5381611b1a565b9050919050565b5f5ffd5b5f5ffd5b5f5ffd5b5f5f83356001602003843603038112611b8257611b81611b5a565b5b80840192508235915067ffffffffffffffff821115611ba457611ba3611b5e565b5b602083019250600182023603831315611bc057611bbf611b62565b5b509250929050565b5f611bd38284611969565b915081905092915050565b7f4b65792065786973747320616e64207265706c6163652069732066616c7365005f82015250565b5f611c12601f8361150a565b9150611c1d82611bde565b602082019050919050565b5f6020820190508181035f830152611c3f81611c06565b9050919050565b7f4e487b71000000000000000000000000000000000000000000000000000000005f52604160045260245ffd5b5f819050815f5260205f209050919050565b5f6020601f8301049050919050565b5f82821b905092915050565b5f60088302611ccf7fffffffffffffffffffffffffffffffffffffffffffffffffffffffffffffffff82611c94565b611cd98683611c94565b95508019841693508086168417925050509392505050565b5f819050919050565b5f611d14611d0f611d0a846114cf565b611cf1565b6114cf565b9050919050565b5f819050919050565b611d2d83611cfa565b611d41611d3982611d1b565b848454611ca0565b825550505050565b5f5f905090565b611d58611d49565b611d63818484611d24565b505050565b5b81811015611d8657611d7b5f82611d50565b600181019050611d69565b5050565b601f821115611dcb57611d9c81611c73565b611da584611c85565b81016020851015611db4578190505b611dc8611dc085611c85565b830182611d68565b50505b505050565b5f82821c905092915050565b5f611deb5f1984600802611dd0565b1980831691505092915050565b5f611e038383611ddc565b9150826002028217905092915050565b611e1c82611500565b67ffffffffffffffff811115611e3557611e34611c46565b5b611e3f82546118f5565b611e4a828285611d8a565b5f60209050601f831160018114611e7b575f8415611e69578287015190505b611e738582611df8565b865550611eda565b601f198416611e8986611c73565b5f5b82811015611eb057848901518255600182019150602085019450602081019050611e8b565b86831015611ecd5784890151611ec9601f891682611ddc565b8355505b6001600288020188555050505b505050505050565b7f22000000000000000000000000000000000000000000000000000000000000005f82015250565b5f611f166001836117df565b9150611f2182611ee2565b600182019050919050565b7f223a0000000000000000000000000000000000000000000000000000000000005f82015250565b5f611f606002836117df565b9150611f6b82611f2c565b600282019050919050565b5f611f818286611939565b9150611f8c82611f0a565b9150611f988285611969565b9150611fa382611f54565b9150611faf8284611969565b9150819050949350505050565b7f7d000000000000000000000000000000000000000000000000000000000000005f82015250565b5f611ff06001836117df565b9150611ffb82611fbc565b600182019050919050565b5f6120118284611939565b915061201c82611fe4565b915081905092915050565b7f56657273696f6e20696e646578206f7574206f6620626f756e647300000000005f82015250565b5f61205b601b8361150a565b915061206682612027565b602082019050919050565b5f6020820190508181035f8301526120888161204f565b9050919050565b5f61209982611f0a565b91506120a58284611969565b91506120b082611f0a565b915081905092915050565b5f6120c5826114cf565b91506120d0836114cf565b92508282026120de816114cf565b915082820484148315176120f5576120f46119bc565b5b5092915050565b5f612106826114cf565b91507fffffffffffffffffffffffffffffffffffffffffffffffffffffffffffffffff8203612138576121376119bc565b5b60018201905091905056fea26469706673582212201e6cd422b417f21f97216b3f8448e520ce42ab061648292295ed2725158c56bb64736f6c634300081e0033","linkReferences":{}},"methodIdentifiers":{"json()":"3b06ddd8","latestVersion(string)":"070f8f5a","owner()":"8da5cb5b","renounceOwnership()":"715018a6","totalKeys()":"488bdabc","transferOwnership(address)":"f2fde38b","valueAt(string,uint256)":"ae06268f","version(string)":"08fb3464","write(string[],string[],bool)":"17e5344e"},"id":18}