{"abi":[{"type":"constructor","inputs":[],"stateMutability":"nonpayable"},{"type":"function","name":"JSON","inputs":[],"outputs":[{"name":"","type":"string","internalType":"string"}],"stateMutability":"view"},{"type":"function","name":"KeyValue","inputs":[{"name":"key","type":"string[]","internalType":"string[]"},{"name":"value","type":"string[]","internalType":"string[]"},{"name":"newKeysOnly","type":"bool","internalType":"bool"}],"outputs":[],"stateMutability":"nonpayable"},{"type":"function","name":"LatestVersion","inputs":[{"name":"key","type":"string","internalType":"string"}],"outputs":[{"name":"","type":"uint256","internalType":"uint256"}],"stateMutability":"view"},{"type":"function","name":"TotalKeys","inputs":[],"outputs":[{"name":"","type":"uint256","internalType":"uint256"}],"stateMutability":"view"},{"type":"function","name":"Value","inputs":[{"name":"key","type":"string","internalType":"string"},{"name":"version","type":"uint256","internalType":"uint256"}],"outputs":[{"name":"","type":"string","internalType":"string"}],"stateMutability":"view"},{"type":"error","name":"KeyValueNotBijective","inputs":[]},{"type":"error","name":"NewKeysOnly","inputs":[]},{"type":"error","name":"NoChange","inputs":[]},{"type":"error","name":"NoKey","inputs":[]},{"type":"error","name":"NoValue","inputs":[]},{"type":"error","name":"NotAdmin","inputs":[]}],"bytecode":{"object":"0x6080604052348015600e575f5ffd5b50730d89421d6eec0a4385f95f410732186a2ab4507760025f6101000a81548173ffffffffffffffffffffffffffffffffffffffff021916908373ffffffffffffffffffffffffffffffffffffffff16021790555061164f806100705f395ff3fe608060405234801561000f575f5ffd5b5060043610610055575f3560e01c80633b6c36f214610059578063406eec9d1461008957806351df12d1146100a55780635d6d55f3146100c3578063af6bbdd2146100e1575b5f5ffd5b610073600480360381019061006e9190610c36565b610111565b6040516100809190610c99565b60405180910390f35b6100a3600480360381019061009e9190610d3c565b610204565b005b6100ad61035f565b6040516100ba9190610e3d565b60405180910390f35b6100cb6105e9565b6040516100d89190610c99565b60405180910390f35b6100fb60048036038101906100f69190610e87565b61062d565b6040516101089190610e3d565b60405180910390f35b5f5f5f6003540361014e576040517f80246e7f00000000000000000000000000000000000000000000000000000000815260040160405180910390fd5b5b6003548110156101cc575f5f8281526020019081526020015f205f016040516101789190610fdd565b60405180910390208484604051610190929190611025565b6040518091039020036101b9575f5f8281526020019081526020015f20600101549150506101fe565b80806101c49061106a565b91505061014f565b6040517f80246e7f00000000000000000000000000000000000000000000000000000000815260040160405180910390fd5b92915050565b61020c61074a565b5f5f600260146101000a81548160ff021916908315150217905550600160045f6101000a81548160ff021916908315150217905550838390508686905014610280576040517f843da05000000000000000000000000000000000000000000000000000000000815260040160405180910390fd5b81156102a0575f60045f6101000a81548160ff0219169083151502179055505b5b85859050811015610311576102fe8686838181106102c2576102c16110b1565b5b90506020028101906102d491906110ea565b8686858181106102e7576102e66110b1565b5b90506020028101906102f991906110ea565b6107d3565b80806103099061106a565b9150506102a1565b600260149054906101000a900460ff16610357576040517fa88ee57700000000000000000000000000000000000000000000000000000000815260040160405180910390fd5b505050505050565b60605f6003540361039c576040517f80246e7f00000000000000000000000000000000000000000000000000000000815260040160405180910390fd5b5f5f6040518060400160405280600181526020017f7b0000000000000000000000000000000000000000000000000000000000000081525090505b6003548210156105c2575f5f5f8481526020019081526020015f205f0180546103ff90610f11565b80601f016020809104026020016040519081016040528092919081815260200182805461042b90610f11565b80156104765780601f1061044d57610100808354040283529160200191610476565b820191905f5260205f20905b81548152906001019060200180831161045957829003601f168201915b505050505090505f5f5f8581526020019081526020015f206001015490505f6001836040516104a59190611186565b90815260200160405180910390205f8381526020019081526020015f205f0180546104cf90610f11565b80601f01602080910402602001604051908101604052809291908181526020018280546104fb90610f11565b80156105465780601f1061051d57610100808354040283529160200191610546565b820191905f5260205f20905b81548152906001019060200180831161052957829003601f168201915b50505050509050838382604051602001610562939291906111e8565b604051602081830303815290604052935060016003546105829190611245565b8510156105ac578360405160200161059a919061129e565b60405160208183030381529060405293505b84806105b79061106a565b9550505050506103d7565b806040516020016105d391906112e9565b6040516020818303038152906040529250505090565b5f5f60035403610625576040517f80246e7f00000000000000000000000000000000000000000000000000000000815260040160405180910390fd5b600354905090565b60605f60018585604051610642929190611332565b90815260200160405180910390205f8481526020019081526020015f205f01805461066c90610f11565b80601f016020809104026020016040519081016040528092919081815260200182805461069890610f11565b80156106e35780601f106106ba576101008083540402835291602001916106e3565b820191905f5260205f20905b8154815290600101906020018083116106c657829003601f168201915b5050505050905060405180602001604052805f8152508051906020012081805190602001200361073f576040517ff2365b5b00000000000000000000000000000000000000000000000000000000815260040160405180910390fd5b809150509392505050565b60025f9054906101000a900473ffffffffffffffffffffffffffffffffffffffff1673ffffffffffffffffffffffffffffffffffffffff163373ffffffffffffffffffffffffffffffffffffffff1603156107d1576040517f7bfa4b9f00000000000000000000000000000000000000000000000000000000815260040160405180910390fd5b565b60405180602001604052805f8152508051906020012084846040516107f9929190611025565b604051809103902003610838576040517f80246e7f00000000000000000000000000000000000000000000000000000000815260040160405180910390fd5b60405180602001604052805f81525080519060200120828260405161085e929190611025565b60405180910390200361089d576040517ff2365b5b00000000000000000000000000000000000000000000000000000000815260040160405180910390fd5b5f5f6108a98686610a12565b915091505f81111561095657600186866040516108c7929190611332565b90815260200160405180910390205f6001836108e39190611245565b81526020019081526020015f205f016040516108ff9190610fdd565b60405180910390208484604051610917929190611025565b60405180910390200361092b575050610a0c565b60015f5f8481526020019081526020015f206001015f82825461094e919061134a565b925050819055505b604051806020016040528085858080601f0160208091040260200160405190810160405280939291908181526020018383808284375f81840152601f19601f82011690508083019250505050505050815250600187876040516109ba929190611332565b90815260200160405180910390205f8381526020019081526020015f205f820151815f0190816109ea919061154a565b509050506001600260146101000a81548160ff02191690831515021790555050505b50505050565b5f5f5f5b600354811015610ae7575f5f8281526020019081526020015f205f01604051610a3f9190610fdd565b60405180910390208585604051610a57929190611025565b604051809103902003610ad45760045f9054906101000a900460ff16610aa9576040517f22fbcbf100000000000000000000000000000000000000000000000000000000815260040160405180910390fd5b8060015f5f8481526020019081526020015f2060010154610aca919061134a565b9250925050610b14565b8080610adf9061106a565b915050610a16565b610af18585610b1b565b6001600260146101000a81548160ff0219169083151502179055505f5f92509250505b9250929050565b60035f815480929190610b2d9061106a565b9190505550604051806040016040528083838080601f0160208091040260200160405190810160405280939291908181526020018383808284375f81840152601f19601f8201169050808301925050505050505081526020015f8152505f5f6001600354610b9b9190611245565b81526020019081526020015f205f820151815f019081610bbb919061154a565b50602082015181600101559050505050565b5f5ffd5b5f5ffd5b5f5ffd5b5f5ffd5b5f5ffd5b5f5f83601f840112610bf657610bf5610bd5565b5b8235905067ffffffffffffffff811115610c1357610c12610bd9565b5b602083019150836001820283011115610c2f57610c2e610bdd565b5b9250929050565b5f5f60208385031215610c4c57610c4b610bcd565b5b5f83013567ffffffffffffffff811115610c6957610c68610bd1565b5b610c7585828601610be1565b92509250509250929050565b5f819050919050565b610c9381610c81565b82525050565b5f602082019050610cac5f830184610c8a565b92915050565b5f5f83601f840112610cc757610cc6610bd5565b5b8235905067ffffffffffffffff811115610ce457610ce3610bd9565b5b602083019150836020820283011115610d0057610cff610bdd565b5b9250929050565b5f8115159050919050565b610d1b81610d07565b8114610d25575f5ffd5b50565b5f81359050610d3681610d12565b92915050565b5f5f5f5f5f60608688031215610d5557610d54610bcd565b5b5f86013567ffffffffffffffff811115610d7257610d71610bd1565b5b610d7e88828901610cb2565b9550955050602086013567ffffffffffffffff811115610da157610da0610bd1565b5b610dad88828901610cb2565b93509350506040610dc088828901610d28565b9150509295509295909350565b5f81519050919050565b5f82825260208201905092915050565b8281835e5f83830152505050565b5f601f19601f8301169050919050565b5f610e0f82610dcd565b610e198185610dd7565b9350610e29818560208601610de7565b610e3281610df5565b840191505092915050565b5f6020820190508181035f830152610e558184610e05565b905092915050565b610e6681610c81565b8114610e70575f5ffd5b50565b5f81359050610e8181610e5d565b92915050565b5f5f5f60408486031215610e9e57610e9d610bcd565b5b5f84013567ffffffffffffffff811115610ebb57610eba610bd1565b5b610ec786828701610be1565b93509350506020610eda86828701610e73565b9150509250925092565b7f4e487b71000000000000000000000000000000000000000000000000000000005f52602260045260245ffd5b5f6002820490506001821680610f2857607f821691505b602082108103610f3b57610f3a610ee4565b5b50919050565b5f81905092915050565b5f819050815f5260205f209050919050565b5f8154610f6981610f11565b610f738186610f41565b9450600182165f8114610f8d5760018114610fa257610fd4565b60ff1983168652811515820286019350610fd4565b610fab85610f4b565b5f5b83811015610fcc57815481890152600182019150602081019050610fad565b838801955050505b50505092915050565b5f610fe88284610f5d565b915081905092915050565b828183375f83830152505050565b5f61100c8385610f41565b9350611019838584610ff3565b82840190509392505050565b5f611031828486611001565b91508190509392505050565b7f4e487b71000000000000000000000000000000000000000000000000000000005f52601160045260245ffd5b5f61107482610c81565b91507fffffffffffffffffffffffffffffffffffffffffffffffffffffffffffffffff82036110a6576110a561103d565b5b600182019050919050565b7f4e487b71000000000000000000000000000000000000000000000000000000005f52603260045260245ffd5b5f5ffd5b5f5ffd5b5f5ffd5b5f5f83356001602003843603038112611106576111056110de565b5b80840192508235915067ffffffffffffffff821115611128576111276110e2565b5b602083019250600182023603831315611144576111436110e6565b5b509250929050565b5f81905092915050565b5f61116082610dcd565b61116a818561114c565b935061117a818560208601610de7565b80840191505092915050565b5f6111918284611156565b915081905092915050565b7f2200000000000000000000000000000000000000000000000000000000000000815250565b7f223a220000000000000000000000000000000000000000000000000000000000815250565b5f6111f38286611156565b91506111fe8261119c565b60018201915061120e8285611156565b9150611219826111c2565b6003820191506112298284611156565b91506112348261119c565b600182019150819050949350505050565b5f61124f82610c81565b915061125a83610c81565b92508282039050818111156112725761127161103d565b5b92915050565b7f2c00000000000000000000000000000000000000000000000000000000000000815250565b5f6112a98284611156565b91506112b482611278565b60018201915081905092915050565b7f7d00000000000000000000000000000000000000000000000000000000000000815250565b5f6112f48284611156565b91506112ff826112c3565b60018201915081905092915050565b5f611319838561114c565b9350611326838584610ff3565b82840190509392505050565b5f61133e82848661130e565b91508190509392505050565b5f61135482610c81565b915061135f83610c81565b92508282019050808211156113775761137661103d565b5b92915050565b7f4e487b71000000000000000000000000000000000000000000000000000000005f52604160045260245ffd5b5f819050815f5260205f209050919050565b5f6020601f8301049050919050565b5f82821b905092915050565b5f600883026114067fffffffffffffffffffffffffffffffffffffffffffffffffffffffffffffffff826113cb565b61141086836113cb565b95508019841693508086168417925050509392505050565b5f819050919050565b5f61144b61144661144184610c81565b611428565b610c81565b9050919050565b5f819050919050565b61146483611431565b61147861147082611452565b8484546113d7565b825550505050565b5f5f905090565b61148f611480565b61149a81848461145b565b505050565b5b818110156114bd576114b25f82611487565b6001810190506114a0565b5050565b601f821115611502576114d3816113aa565b6114dc846113bc565b810160208510156114eb578190505b6114ff6114f7856113bc565b83018261149f565b50505b505050565b5f82821c905092915050565b5f6115225f1984600802611507565b1980831691505092915050565b5f61153a8383611513565b9150826002028217905092915050565b61155382610dcd565b67ffffffffffffffff81111561156c5761156b61137d565b5b6115768254610f11565b6115818282856114c1565b5f60209050601f8311600181146115b2575f84156115a0578287015190505b6115aa858261152f565b865550611611565b601f1984166115c0866113aa565b5f5b828110156115e7578489015182556001820191506020850194506020810190506115c2565b868310156116045784890151611600601f891682611513565b8355505b6001600288020188555050505b50505050505056fea26469706673582212207ccb0525eeca20b95fde0c2e68102935fbb279dfad929bec732713b5935a89af64736f6c634300081e0033","linkReferences":{}},"methodIdentifiers":{"JSON()":"51df12d1","KeyValue(string[],string[],bool)":"406eec9d","LatestVersion(string)":"3b6c36f2","TotalKeys()":"5d6d55f3","Value(string,uint256)":"af6bbdd2"},"id":21}